:020000040000FA
:06000000CEEF01F012003A
:0A0006000100E603000060000000A6
:0400100016000000D6
:0C001400060EF66E000EF76E000EF86E81
:1000200000010900F5507B6F0900F5507C6F03E17A
:100030007B6701D03DD00900F550766F0900F5507F
:10004000776F0900F550786F09000900F550E96EE7
:100050000900F550EA6E090009000900F550796FB2
:100060000900F5507A6F09000900F6CF7DF0F7CF4F
:100070007EF0F8CF7FF076C0F6FF77C0F7FF78C04C
:10008000F8FF0001795302E17A5307E00900F550C7
:10009000EE6E7907F8E27A07F9D77DC0F6FF7EC0E9
:1000A000F7FF7FC0F8FF00017B07000E7C5BBFD726
:0200B00012003C
:0E00B200D9CFE6FFE1CFD9FFE6529FEC00F078
:1000C000600EE66E000EE66E07EC01F0E552E552BA
:1000D000DF6ADFCF02F0600EE76E0218E8AE02D0F2
:1000E000E73402D0E750025C11E2B50EE66EAEECEA
:1000F00001F0E552B50EE66EAEEC01F0E5521C0ED5
:10010000E66E81EC01F0E552DF2AE3D7010EE66EE0
:1001100081EC01F0E552020EE66E81EC01F0E55251
:100120006E0EE66E000EE66E060EE66E020EE66ED1
:0E01300035EC01F0E552E552E552E552FFD7FD
:02013E00956AC0
:1001400096909692B50EE66EAEEC01F0E552300E4A
:10015000E66E81EC01F0E5523D0EE66EAEEC01F08C
:10016000E552300EE66E81EC01F0E5523D0EE66E92
:10017000AEEC01F0E552300EE66E81EC01F0E55296
:10018000380EE66E81EC01F0E5520C0EE66E81EC65
:1001900001F0E552010EE66E81EC01F0E552060E2B
:0A01A000E66E81EC01F0E55212005A
:0601AA00D9CFE6FFE1CF12
:1001B000D9FFE652020EE66E81EC01F0E552020E26
:1001C000F36EFE0EDBCFF4FFF350F45C05E3C00EDC
:1001D000E66E81EC01F0E552FD0EDB50100805E201
:1001E000110EF36EFD0EF3CFDBFF010EDF6EFD0E81
:1001F000DB50DF5C07E2140EE66E81EC01F0E552A5
:0E020000DF2AF5D7E552E552E7CFD9FF12000D
:02020E00D9CF46
:10021000E6FFE1CFD9FFE652DF6ADFCF02F0036AE3
:1002200002BE0368FD0EDB500224E96EFE0EDB50B9
:100230000320EA6EEF5014E0DF50DF2A026E036AFB
:1002400002BE0368FD0EDB500224E96EFE0EDB5099
:100250000320EA6EEF50E66E69EC01F0E552DDD75F
:0A026000E552E552E7CFD9FF120086
:06026A00D9CFE6FFE1CF51
:10027000D9FFFD0EDBCFE6FFFE0EDBCFE6FFD5ECB0
:1002800000F0E552E552FB0EDBCFE6FFFC0EDBCFC4
:10029000E6FF07EC01F0E552E552E552E7CFD9FF62
:0202A00012004A
:0E02A200D9CFE6FFE1CFD9FFFD0EDBCFE6FF9F
:1002B000FE0EDBCFE6FFD5EC00F0E552E552FC0E7A
:1002C000DBCFE6FF69EC01F0E552E552E7CFD9FF5D
:0202D00012001A
:0E02D200D9CFE6FFE1CFD9FFFE0EDBCFE6FF6E
:1002E000E7EC01F0E552010EE66E98EC01F0E55204
:1002F000180EE66EAEEC01F0E552E552E7CFD9FFFD
:020300001200E9
:0E030200D9CFE6FFE1CFD9FFFE0EDBCFE6FF3D
:10031000E7EC01F0E552E66A98EC01F0E552180EC0
:10032000E66EAEEC01F0E552E552E7CFD9FF1200E0
:10033000D9CFE6FFE1CFD9FFFE0EDB50E8B08D80CC
:10034000E8A08D908D82050EE66EDCEC01F0E552A2
:0C0350008D928D80E552E7CFD9FF12009E
:04035C00FF0EE3505D
:10036000046E480E01D04C0EE76EE72EFED7E76A0A
:0C037000E72EFED7042EF7D70000120085
:04037C00000EF36E0E
:1003800000EE00F0080E01D81200EA6002D0EE6A1A
:0C039000FCD7F350E9601200EE6AFCD7C5
:04039C0013EE00F06C
:1003A00023EE00F0F86A019C0AEC00F0F2EC01F098
:0803B00059EC00F0FBD712002C
:0803B800FF0EE350E84E1200B5
:0E03C000000000D000D000D0E82EFAD71200C6
:0203CE00D9CF85
:1003D000E6FFE1CFD9FFFE0EDB508C6EE552E7CF92
:0403E000D9FF12002F
:0203E400120005
:0A03E60048656C6C6F2C20576F7295
:0C03F0006C642100427920427920210039
:020000040030CA
:0100000001FE
:010001000EF0
:0100020019E4
:010003001EDE
:010005008377
:00000001FF
