:0400000063EF00F0BA
:100018001B80D8CF01F0E8CF02F0E0CF03F0FACF91
:1000280004F0FBCF05F0E9CF06F0EACF07F0E1CF07
:1000380008F0E2CF09F0D9CF0AF0DACF0BF0F3CF0E
:100048000CF0F4CF0DF0F6CF0EF0F7CF0FF0F8CF9D
:1000580010F0F5CF11F01BC012F01CC013F01DC03A
:1000680014F01EC015F015C01EF014C01DF013C00A
:100078001CF012C01BF011C0F5FF10C0F8FF0FC034
:10008800F7FF0EC0F6FF0DC0F4FF0CC0F3FF0BC066
:10009800DAFF0AC0D9FF09C0E2FF08C0E1FF07C0C4
:1000A800EAFF06C0E9FF05C0FBFF04C0FAFF03C072
:1000B800E0FF02C0E8FF01C0D8FF1B90100087EFE7
:1000C80000F09E849E8A9E989E9C9D9C9D989D8EE5
:1000D800090E0E01FD6F170EB56F0F01219F9F8648
:1000E800CA0E1A6E1AC09BFF9C6A000E9B6E120005
:1000F800800E166E250E176E000E186E000E196E05
:1001080065EC00F0FFD71B901B9200017CEF00F01C
:020000040020DA
:10000000FF0FFF0FFF0FFF0FFF0FFF0FFF0FFF0F80
:020000040030CA
:0C0000008CFFFFF7ACCFFFFFFFFFFFFFFE
:00000001FF
