:04000000AFEFFFF06F
:020000040001F9
:10FF58008898838812000001C4EFFFF00F01898898
:10FF6800199912000F018A8A219B1200E0CFE8FF3D
:10FF78000001E8CF6CF0350E6B6F6B2FFED71200C7
:10FF8800000E886E8368ACECFFF08388EFECFFF01E
:10FF98008398EFECFFF0F9D7E0CFE8FF0001E8CF56
:10FFA8006AF0000E686F150E696F682FFED7692F0B
:10FFB800FCD71200E0CFE8FF0001E8CF67F0000EA1
:10FFC800646F656F080E666F642FFED7652FFCD7C8
:10FFD800662FFAD71200E0CFE8FF0001E8CF63F000
:10FFE800000E606F616F030E626F602FFED7612F86
:08FFF800FCD7622FFAD71200BA
:020000040020DA
:10000000FF0FFF0FFF0FFF0FFF0FFF0FFF0FFF0F80
:020000040030CA
:0C0000008CFFFFF7ACCFFFFFFFFFFFFFFE
:00000001FF
