:040000005AEF00F0C3
:100008001782FACF03F0FBCF04F0E9CF05F0EACF6F
:1000180006F0E1CF07F0E2CF08F0D9CF09F0DACF48
:100028000AF0F3CF0BF0F4CF0CF0F6CF0DF0F7CFCA
:100038000EF0F8CF0FF0F5CF10F017C011F018C080
:1000480012F019C013F01AC014F00E01CAAB08D090
:10005800CA9B000E026E000E016E7CEC00F08378E5
:1000680014C01AF013C019F012C018F011C017F01C
:1000780010C0F5FF0FC0F8FF0EC0F7FF0DC0F6FF68
:100088000CC0F4FF0BC0F3FF0AC0DAFF09C0D9FFA8
:1000980008C0E2FF07C0E1FF06C0EAFF05C0E9FFAC
:1000A80004C0FBFF03C0FAFF1792110077EF00F0BE
:1000B800100ED56E760ED66EB10ED46EDF0ED36EE0
:1000C8000E01CA9BC28BBA9BF28AF28CF28ED58E35
:1000D800120088988388000E166E000E156E5CEC70
:1000E80000F00300FED71790179200016DEF00F0A3
:0A00F800B10ED46EDF0ED36E1200BD
:020000040020DA
:10000000FF0FFF0FFF0FFF0FFF0FFF0FFF0FFF0F80
:020000040030CA
:0C0000008CFFFFF7ACCFFFFFFFFFFFFFFE
:00000001FF
