:020000040000FA
:060000009DEF00F012006C
:020006000000F8
:08000800060EF66E000EF76E05
:10001000000EF86E00010900F550656F0900F550FB
:10002000666F03E1656701D03DD00900F550606F50
:100030000900F550616F0900F550626F0900090071
:10004000F550E96E0900F550EA6E09000900090053
:10005000F550636F0900F550646F09000900F6CF91
:1000600067F0F7CF68F0F8CF69F060C0F6FF61C0C5
:10007000F7FF62C0F8FF0001635302E1645307E039
:100080000900F550EE6E6307F8E26407F9D767C020
:10009000F6FF68C0F7FF69C0F8FF00016507000EB2
:0600A000665BBFD71200F1
:0A00A600D9CFE6FFE1CFD9FF020E2B
:1000B000E12693909392939493968A908A828A846D
:1000C0008A96929A898ADE6ADD6ADECF02F0DDCFF7
:1000D00003F0D890035004E6640E025C000E03584F
:1000E0000AE2B50EE66E7DEC00F0E552DF2A010E65
:0A00F000ECE3DB2AEAD7899AFFD778
:0600FA00FF0EE350046E4E
:10010000480E01D04C0EE76EE72EFED7E76AE72EC9
:0A011000FED7042EF7D700001200FE
:06011A00000EF36E00EE82
:1001200000F0080E01D81200EA6002D0EE6AFCD797
:0A013000F350E9601200EE6AFCD7FC
:06013A0013EE00F023EEBD
:1001400000F0F86A019C04EC00F0ABEC00F053EC1A
:0601500000F0FBD71200D5
:02015600120095
:020000040030CA
:0100000001FE
:010001000EF0
:0100020019E4
:010003001EDE
:010005008377
:00000001FF
