:020000040000FA
:06000000B9EF00F0120050
:0A00060001008E0100006000000000
:040010001B000000D1
:020014001200D8
:060018005EEF00F0120093
:02001E00060ECC
:10002000F66E000EF76E000EF86E00010900F55036
:10003000806F0900F550816F03E1806701D03DD0EA
:100040000900F5507B6F0900F5507C6F0900F550F1
:100050007D6F09000900F550E96E0900F550EA6E60
:10006000090009000900F5507E6F0900F5507F6F07
:1000700009000900F6CF82F0F7CF83F0F8CF84F0C3
:100080007BC0F6FF7CC0F7FF7DC0F8FF00017E5308
:1000900002E17F5307E00900F550EE6E7E07F8E2BB
:1000A0007F07F9D782C0F6FF83C0F7FF84C0F8FF4F
:0C00B00000018007000E815BBFD712002A
:0400BC00D8CFE4FFB6
:1000C000E0CFE4FFE46EDACFE4FFE652F2A40CD016
:1000D000F294150ED66E00017A5103E08A927A6B83
:1000E00003D08A82010E7A6FE552E5CFDAFFE55040
:1000F000E5CFE0FFE5CFD8FF1000070ED56ED7683B
:10010000150ED66ED08EF29EF28CF294F28AF19495
:10011000D58E120093920F0E956E1200D9CFE6FF86
:10012000E1CFD9FF050EE126010EDB6A030EDB6A83
:10013000040EDB6AEFDFE1DFF28E070E8314FDE0D1
:10014000F29E020E83CFDBFF020EDB50835CFCE0ED
:02015000F3D7E3
:0E015200000EF36E00EE00F0080E01D8120051
:10016000EA6002D0EE6AFCD7F350E9601200EE6A52
:02017000FCD7BA
:0E01720013EE00F023EE00F0F86A019C0FEC93
:0E01800000F00AEC00F08EEC00F0FBD712004D
:02018E005361BB
:100190006973697220636F6465203A002020202013
:0901A000004F70656E00D40501EA
:020000040030CA
:0100000001FE
:010001000EF0
:0100020019E4
:010003001EDE
:010005008377
:010006008178
:00000001FF
